{
  "contractName": "AccountBookHelper",
  "abi": [
    {
      "constant": true,
      "inputs": [
        {
          "name": "",
          "type": "uint256"
        }
      ],
      "name": "billToOwner",
      "outputs": [
        {
          "name": "",
          "type": "address"
        }
      ],
      "payable": false,
      "stateMutability": "view",
      "type": "function"
    },
    {
      "constant": true,
      "inputs": [
        {
          "name": "",
          "type": "uint256"
        }
      ],
      "name": "bills",
      "outputs": [
        {
          "name": "primaryCategory",
          "type": "uint8"
        },
        {
          "name": "secondaryCategory",
          "type": "uint8"
        },
        {
          "name": "createTime",
          "type": "uint32"
        },
        {
          "name": "amount",
          "type": "uint256"
        }
      ],
      "payable": false,
      "stateMutability": "view",
      "type": "function"
    },
    {
      "constant": false,
      "inputs": [
        {
          "name": "_amount",
          "type": "uint256"
        },
        {
          "name": "_primaryCategory",
          "type": "uint256"
        },
        {
          "name": "_secondaryCategory",
          "type": "uint256"
        }
      ],
      "name": "createBill",
      "outputs": [],
      "payable": false,
      "stateMutability": "nonpayable",
      "type": "function"
    },
    {
      "constant": true,
      "inputs": [],
      "name": "getBillsByOwner",
      "outputs": [
        {
          "name": "",
          "type": "uint256[]"
        }
      ],
      "payable": false,
      "stateMutability": "view",
      "type": "function"
    },
    {
      "constant": true,
      "inputs": [
        {
          "name": "_startTime",
          "type": "uint32"
        },
        {
          "name": "_endTime",
          "type": "uint32"
        }
      ],
      "name": "getAccountBookSummaryByStartTimeAndEndTime",
      "outputs": [
        {
          "name": "inCome",
          "type": "uint256"
        },
        {
          "name": "expend",
          "type": "uint256"
        }
      ],
      "payable": false,
      "stateMutability": "view",
      "type": "function"
    }
  ],
  "bytecode": "0x608060405234801561001057600080fd5b506107ba806100206000396000f30060806040526004361061006d576000357c0100000000000000000000000000000000000000000000000000000000900463ffffffff16806312d54836146100725780631d77d489146100d057806328bdcde81461013d57806370d55cc4146101bb5780637a54f18914610227575b600080fd5b34801561007e57600080fd5b506100b3600480360381019080803563ffffffff169060200190929190803563ffffffff169060200190929190505050610268565b604051808381526020018281526020019250505060405180910390f35b3480156100dc57600080fd5b506100fb600480360381019080803590602001909291905050506103d8565b604051808273ffffffffffffffffffffffffffffffffffffffff1673ffffffffffffffffffffffffffffffffffffffff16815260200191505060405180910390f35b34801561014957600080fd5b506101686004803603810190808035906020019092919050505061040b565b6040518085600181111561017857fe5b60ff16815260200184600381111561018c57fe5b60ff1681526020018363ffffffff1663ffffffff16815260200182815260200194505050505060405180910390f35b3480156101c757600080fd5b506101d0610474565b6040518080602001828103825283818151815260200191508051906020019060200280838360005b838110156102135780820151818401526020810190506101f8565b505050509050019250505060405180910390f35b34801561023357600080fd5b506102666004803603810190808035906020019092919080359060200190929190803590602001909291905050506105a4565b005b600080600080600091505b6000805490508210156103cf573373ffffffffffffffffffffffffffffffffffffffff166001600084815260200190815260200160002060009054906101000a900473ffffffffffffffffffffffffffffffffffffffff1673ffffffffffffffffffffffffffffffffffffffff1614801561032557506103246000838154811015156102fb57fe5b906000526020600020906002020160000160029054906101000a900463ffffffff16878761075d565b5b156103c25760008281548110151561033957fe5b906000526020600020906002020190506000600181111561035657fe5b8160000160009054906101000a900460ff16600181111561037357fe5b1415610387578060010154840193506103c1565b60018081111561039357fe5b8160000160009054906101000a900460ff1660018111156103b057fe5b14156103c0578060010154830192505b5b5b8180600101925050610273565b50509250929050565b60016020528060005260406000206000915054906101000a900473ffffffffffffffffffffffffffffffffffffffff1681565b60008181548110151561041a57fe5b90600052602060002090600202016000915090508060000160009054906101000a900460ff16908060000160019054906101000a900460ff16908060000160029054906101000a900463ffffffff16908060010154905084565b606080600080600260003373ffffffffffffffffffffffffffffffffffffffff1673ffffffffffffffffffffffffffffffffffffffff168152602001908152602001600020546040519080825280602002602001820160405280156104e85781602001602082028038833980820191505090505b50925060009150600090505b60008054905081101561059b573373ffffffffffffffffffffffffffffffffffffffff166001600083815260200190815260200160002060009054906101000a900473ffffffffffffffffffffffffffffffffffffffff1673ffffffffffffffffffffffffffffffffffffffff16141561058e5780838381518110151561057757fe5b906020019060200201818152505081806001019250505b80806001019150506104f4565b82935050505090565b600080429150600160006080604051908101604052808760018111156105c657fe5b60018111156105d157fe5b81526020018660038111156105e257fe5b60038111156105ed57fe5b81526020018563ffffffff168152602001888152509080600181540180825580915050906001820390600052602060002090600202016000909192909190915060008201518160000160006101000a81548160ff0219169083600181111561065157fe5b021790555060208201518160000160016101000a81548160ff0219169083600381111561067a57fe5b021790555060408201518160000160026101000a81548163ffffffff021916908363ffffffff160217905550606082015181600101555050039050336001600083815260200190815260200160002060006101000a81548173ffffffffffffffffffffffffffffffffffffffff021916908373ffffffffffffffffffffffffffffffffffffffff160217905550600260003373ffffffffffffffffffffffffffffffffffffffff1673ffffffffffffffffffffffffffffffffffffffff168152602001908152602001600020600081548092919060010191905055505050505050565b60008263ffffffff168463ffffffff1611801561078557508163ffffffff168463ffffffff16105b905093925050505600a165627a7a72305820a787648937b4cf3da95df7cb692ed427f15a75643f04fe91354b42359bce70070029",
  "source": "pragma solidity ^0.4.20;\n\nimport \"./AccountBookFactory.sol\";\n\n\ncontract AccountBookHelper is AccountBookFactory {\n\n    function getBillsByOwner() \n        external \n        view \n        returns(uint[])\n    {\n        uint[] memory result = new uint[](ownerBillCount[msg.sender]);\n        uint counter = 0;\n        for (uint i = 0; i < bills.length; i++) {\n            if (billToOwner[i] == msg.sender) {\n                result[counter] = i;\n                counter++;\n            }\n        }\n        return result;\n    }\n\n    function getAccountBookSummaryByStartTimeAndEndTime(uint32 _startTime, uint32 _endTime) \n        public \n        view \n        returns(uint256 inCome, uint256 expend)\n    {\n        for (uint i = 0; i < bills.length; i++) {\n            if (billToOwner[i] == msg.sender && compareTimestamp(bills[i].createTime, _startTime, _endTime)) {\n                Bill storage bill = bills[i];\n                if (bill.primaryCategory == PrimaryCategory.InCome) {\n                    inCome += bill.amount;\n                }else if (bill.primaryCategory == PrimaryCategory.Expend) {\n                    expend += bill.amount;\n                }\n            }\n        }\n    }\n\n    function compareTimestamp(uint32 _compareTime, uint32 _startTime, uint32 _endTime) \n        internal \n        pure \n        returns(bool) \n    {\n        return (_compareTime > _startTime && _compareTime < _endTime);\n    }\n\n    \n    \n\n\n}",
  "sourcePath": "/Users/gaowenfeng/project/solidity/ChainBook/contracts/AccountBookHelper.sol",
  "compiler": {
    "name": "solc",
    "version": "0.4.24+commit.e67f0147.Emscripten.clang"
  },
  "schemaVersion": "2.0.1",
  "updatedAt": "2018-10-10T08:31:21.862Z"
}