{
  "contractName": "AccountBookHelper",
  "abi": [
    {
      "constant": true,
      "inputs": [
        {
          "name": "",
          "type": "uint256"
        }
      ],
      "name": "billToOwner",
      "outputs": [
        {
          "name": "",
          "type": "address"
        }
      ],
      "payable": false,
      "stateMutability": "view",
      "type": "function"
    },
    {
      "constant": true,
      "inputs": [
        {
          "name": "",
          "type": "uint256"
        }
      ],
      "name": "bills",
      "outputs": [
        {
          "name": "primaryCategory",
          "type": "uint8"
        },
        {
          "name": "secondaryCategory",
          "type": "uint8"
        },
        {
          "name": "createTime",
          "type": "uint32"
        },
        {
          "name": "amount",
          "type": "uint256"
        }
      ],
      "payable": false,
      "stateMutability": "view",
      "type": "function"
    },
    {
      "constant": false,
      "inputs": [
        {
          "name": "_amount",
          "type": "uint256"
        },
        {
          "name": "_primaryCategory",
          "type": "uint256"
        },
        {
          "name": "_secondaryCategory",
          "type": "uint256"
        }
      ],
      "name": "createBill",
      "outputs": [],
      "payable": false,
      "stateMutability": "nonpayable",
      "type": "function"
    },
    {
      "constant": false,
      "inputs": [
        {
          "name": "_openid",
          "type": "bytes32"
        }
      ],
      "name": "createUser",
      "outputs": [],
      "payable": false,
      "stateMutability": "nonpayable",
      "type": "function"
    },
    {
      "constant": true,
      "inputs": [
        {
          "name": "",
          "type": "bytes32"
        }
      ],
      "name": "openidToOwner",
      "outputs": [
        {
          "name": "",
          "type": "address"
        }
      ],
      "payable": false,
      "stateMutability": "view",
      "type": "function"
    },
    {
      "constant": true,
      "inputs": [],
      "name": "getBillsByOwner",
      "outputs": [
        {
          "name": "",
          "type": "uint256[]"
        }
      ],
      "payable": false,
      "stateMutability": "view",
      "type": "function"
    },
    {
      "constant": true,
      "inputs": [
        {
          "name": "_startTime",
          "type": "uint32"
        },
        {
          "name": "_endTime",
          "type": "uint32"
        }
      ],
      "name": "getAccountBookSummaryByStartTimeAndEndTime",
      "outputs": [
        {
          "name": "inCome",
          "type": "uint256"
        },
        {
          "name": "expend",
          "type": "uint256"
        }
      ],
      "payable": false,
      "stateMutability": "view",
      "type": "function"
    }
  ],
  "bytecode": "0x608060405234801561001057600080fd5b50610902806100206000396000f300608060405260043610610083576000357c0100000000000000000000000000000000000000000000000000000000900463ffffffff16806312d54836146100885780631d77d489146100e657806328bdcde81461015357806370d55cc4146101d15780637a54f1891461023d578063abf7bfd81461027e578063cacfa9ca146102af575b600080fd5b34801561009457600080fd5b506100c9600480360381019080803563ffffffff169060200190929190803563ffffffff169060200190929190505050610320565b604051808381526020018281526020019250505060405180910390f35b3480156100f257600080fd5b5061011160048036038101908080359060200190929190505050610490565b604051808273ffffffffffffffffffffffffffffffffffffffff1673ffffffffffffffffffffffffffffffffffffffff16815260200191505060405180910390f35b34801561015f57600080fd5b5061017e600480360381019080803590602001909291905050506104c3565b6040518085600181111561018e57fe5b60ff1681526020018460038111156101a257fe5b60ff1681526020018363ffffffff1663ffffffff16815260200182815260200194505050505060405180910390f35b3480156101dd57600080fd5b506101e661052c565b6040518080602001828103825283818151815260200191508051906020019060200280838360005b8381101561022957808201518184015260208101905061020e565b505050509050019250505060405180910390f35b34801561024957600080fd5b5061027c60048036038101908080359060200190929190803590602001909291908035906020019092919050505061065c565b005b34801561028a57600080fd5b506102ad6004803603810190808035600019169060200190929190505050610815565b005b3480156102bb57600080fd5b506102de6004803603810190808035600019169060200190929190505050610872565b604051808273ffffffffffffffffffffffffffffffffffffffff1673ffffffffffffffffffffffffffffffffffffffff16815260200191505060405180910390f35b600080600080600091505b600080549050821015610487573373ffffffffffffffffffffffffffffffffffffffff166002600084815260200190815260200160002060009054906101000a900473ffffffffffffffffffffffffffffffffffffffff1673ffffffffffffffffffffffffffffffffffffffff161480156103dd57506103dc6000838154811015156103b357fe5b906000526020600020906002020160000160029054906101000a900463ffffffff1687876108a5565b5b1561047a576000828154811015156103f157fe5b906000526020600020906002020190506000600181111561040e57fe5b8160000160009054906101000a900460ff16600181111561042b57fe5b141561043f57806001015484019350610479565b60018081111561044b57fe5b8160000160009054906101000a900460ff16600181111561046857fe5b1415610478578060010154830192505b5b5b818060010192505061032b565b50509250929050565b60026020528060005260406000206000915054906101000a900473ffffffffffffffffffffffffffffffffffffffff1681565b6000818154811015156104d257fe5b90600052602060002090600202016000915090508060000160009054906101000a900460ff16908060000160019054906101000a900460ff16908060000160029054906101000a900463ffffffff16908060010154905084565b606080600080600360003373ffffffffffffffffffffffffffffffffffffffff1673ffffffffffffffffffffffffffffffffffffffff168152602001908152602001600020546040519080825280602002602001820160405280156105a05781602001602082028038833980820191505090505b50925060009150600090505b600080549050811015610653573373ffffffffffffffffffffffffffffffffffffffff166002600083815260200190815260200160002060009054906101000a900473ffffffffffffffffffffffffffffffffffffffff1673ffffffffffffffffffffffffffffffffffffffff1614156106465780838381518110151561062f57fe5b906020019060200201818152505081806001019250505b80806001019150506105ac565b82935050505090565b6000804291506001600060806040519081016040528087600181111561067e57fe5b600181111561068957fe5b815260200186600381111561069a57fe5b60038111156106a557fe5b81526020018563ffffffff168152602001888152509080600181540180825580915050906001820390600052602060002090600202016000909192909190915060008201518160000160006101000a81548160ff0219169083600181111561070957fe5b021790555060208201518160000160016101000a81548160ff0219169083600381111561073257fe5b021790555060408201518160000160026101000a81548163ffffffff021916908363ffffffff160217905550606082015181600101555050039050336002600083815260200190815260200160002060006101000a81548173ffffffffffffffffffffffffffffffffffffffff021916908373ffffffffffffffffffffffffffffffffffffffff160217905550600360003373ffffffffffffffffffffffffffffffffffffffff1673ffffffffffffffffffffffffffffffffffffffff168152602001908152602001600020600081548092919060010191905055505050505050565b3360016000836000191660001916815260200190815260200160002060006101000a81548173ffffffffffffffffffffffffffffffffffffffff021916908373ffffffffffffffffffffffffffffffffffffffff16021790555050565b60016020528060005260406000206000915054906101000a900473ffffffffffffffffffffffffffffffffffffffff1681565b60008263ffffffff168463ffffffff161180156108cd57508163ffffffff168463ffffffff16105b905093925050505600a165627a7a72305820c0ddfb06fce9fa15cdbc5f323f63753dd288da6b4410a833e559d904d791904c0029",
  "source": "pragma solidity ^0.4.20;\n\nimport \"./AccountBookFactory.sol\";\n\n\ncontract AccountBookHelper is AccountBookFactory {\n\n    function getBillsByOwner() \n        external \n        view \n        returns(uint[])\n    {\n        uint[] memory result = new uint[](ownerBillCount[msg.sender]);\n        uint counter = 0;\n        for (uint i = 0; i < bills.length; i++) {\n            if (billToOwner[i] == msg.sender) {\n                result[counter] = i;\n                counter++;\n            }\n        }\n        return result;\n    }\n\n    function getAccountBookSummaryByStartTimeAndEndTime(uint32 _startTime, uint32 _endTime) \n        public \n        view \n        returns(uint256 inCome, uint256 expend)\n    {\n        for (uint i = 0; i < bills.length; i++) {\n            if (billToOwner[i] == msg.sender && compareTimestamp(bills[i].createTime, _startTime, _endTime)) {\n                Bill storage bill = bills[i];\n                if (bill.primaryCategory == PrimaryCategory.InCome) {\n                    inCome += bill.amount;\n                }else if (bill.primaryCategory == PrimaryCategory.Expend) {\n                    expend += bill.amount;\n                }\n            }\n        }\n    }\n\n    function compareTimestamp(uint32 _compareTime, uint32 _startTime, uint32 _endTime) \n        internal \n        pure \n        returns(bool) \n    {\n        return (_compareTime > _startTime && _compareTime < _endTime);\n    }\n\n    \n    \n\n\n}",
  "sourcePath": "/Users/gaowenfeng/project/solidity/ChainBook/contracts/AccountBookHelper.sol",
  "compiler": {
    "name": "solc",
    "version": "0.4.24+commit.e67f0147.Emscripten.clang"
  },
  "schemaVersion": "2.0.1",
  "updatedAt": "2018-10-11T16:04:53.008Z"
}