{
  "contractName": "AccountBookFactory",
  "abi": [
    {
      "constant": true,
      "inputs": [
        {
          "name": "",
          "type": "uint256"
        }
      ],
      "name": "billToOwner",
      "outputs": [
        {
          "name": "",
          "type": "address"
        }
      ],
      "payable": false,
      "stateMutability": "view",
      "type": "function"
    },
    {
      "constant": true,
      "inputs": [
        {
          "name": "",
          "type": "uint256"
        }
      ],
      "name": "bills",
      "outputs": [
        {
          "name": "primaryCategory",
          "type": "uint8"
        },
        {
          "name": "secondaryCategory",
          "type": "uint8"
        },
        {
          "name": "createTime",
          "type": "uint32"
        },
        {
          "name": "amount",
          "type": "uint256"
        }
      ],
      "payable": false,
      "stateMutability": "view",
      "type": "function"
    },
    {
      "constant": true,
      "inputs": [
        {
          "name": "",
          "type": "bytes32"
        }
      ],
      "name": "openidToOwner",
      "outputs": [
        {
          "name": "",
          "type": "address"
        }
      ],
      "payable": false,
      "stateMutability": "view",
      "type": "function"
    },
    {
      "constant": false,
      "inputs": [
        {
          "name": "_openid",
          "type": "bytes32"
        }
      ],
      "name": "createUser",
      "outputs": [],
      "payable": false,
      "stateMutability": "nonpayable",
      "type": "function"
    },
    {
      "constant": false,
      "inputs": [
        {
          "name": "_amount",
          "type": "uint256"
        },
        {
          "name": "_primaryCategory",
          "type": "uint256"
        },
        {
          "name": "_secondaryCategory",
          "type": "uint256"
        }
      ],
      "name": "createBill",
      "outputs": [],
      "payable": false,
      "stateMutability": "nonpayable",
      "type": "function"
    }
  ],
  "bytecode": "0x608060405234801561001057600080fd5b50610551806100206000396000f30060806040526004361061006d576000357c0100000000000000000000000000000000000000000000000000000000900463ffffffff1680631d77d4891461007257806328bdcde8146100df5780637a54f1891461015d578063abf7bfd81461019e578063cacfa9ca146101cf575b600080fd5b34801561007e57600080fd5b5061009d60048036038101908080359060200190929190505050610240565b604051808273ffffffffffffffffffffffffffffffffffffffff1673ffffffffffffffffffffffffffffffffffffffff16815260200191505060405180910390f35b3480156100eb57600080fd5b5061010a60048036038101908080359060200190929190505050610273565b6040518085600181111561011a57fe5b60ff16815260200184600381111561012e57fe5b60ff1681526020018363ffffffff1663ffffffff16815260200182815260200194505050505060405180910390f35b34801561016957600080fd5b5061019c6004803603810190808035906020019092919080359060200190929190803590602001909291905050506102dc565b005b3480156101aa57600080fd5b506101cd6004803603810190808035600019169060200190929190505050610495565b005b3480156101db57600080fd5b506101fe60048036038101908080356000191690602001909291905050506104f2565b604051808273ffffffffffffffffffffffffffffffffffffffff1673ffffffffffffffffffffffffffffffffffffffff16815260200191505060405180910390f35b60026020528060005260406000206000915054906101000a900473ffffffffffffffffffffffffffffffffffffffff1681565b60008181548110151561028257fe5b90600052602060002090600202016000915090508060000160009054906101000a900460ff16908060000160019054906101000a900460ff16908060000160029054906101000a900463ffffffff16908060010154905084565b600080429150600160006080604051908101604052808760018111156102fe57fe5b600181111561030957fe5b815260200186600381111561031a57fe5b600381111561032557fe5b81526020018563ffffffff168152602001888152509080600181540180825580915050906001820390600052602060002090600202016000909192909190915060008201518160000160006101000a81548160ff0219169083600181111561038957fe5b021790555060208201518160000160016101000a81548160ff021916908360038111156103b257fe5b021790555060408201518160000160026101000a81548163ffffffff021916908363ffffffff160217905550606082015181600101555050039050336002600083815260200190815260200160002060006101000a81548173ffffffffffffffffffffffffffffffffffffffff021916908373ffffffffffffffffffffffffffffffffffffffff160217905550600360003373ffffffffffffffffffffffffffffffffffffffff1673ffffffffffffffffffffffffffffffffffffffff168152602001908152602001600020600081548092919060010191905055505050505050565b3360016000836000191660001916815260200190815260200160002060006101000a81548173ffffffffffffffffffffffffffffffffffffffff021916908373ffffffffffffffffffffffffffffffffffffffff16021790555050565b60016020528060005260406000206000915054906101000a900473ffffffffffffffffffffffffffffffffffffffff16815600a165627a7a72305820126434b815b41afc9c7b491c355a530f7985c4cd7aff656c27e6b4c25d3fb0980029",
  "source": "pragma solidity ^0.4.20;\n\n\ncontract AccountBookFactory {\n    \n    enum PrimaryCategory {\n        InCome,\n        Expend\n    }\n    \n    enum SecondaryCategory {\n        Eat,\n        Traffic,\n        General,\n        Other\n    }\n    \n    struct Bill {\n        PrimaryCategory primaryCategory;\n        SecondaryCategory secondaryCategory;\n        uint32 createTime;\n        uint256 amount;\n    }\n    \n    Bill[] public bills;\n    \n    mapping (bytes32 => address) public openidToOwner;\n    mapping (uint => address) public billToOwner;\n    mapping (address => uint) ownerBillCount;\n\n\n    function createUser(bytes32 _openid) public\n    {\n       openidToOwner[_openid] = msg.sender;\n    }\n    \n    function createBill(\n        uint _amount,\n        uint _primaryCategory,\n        uint _secondaryCategory) \n        public \n    {\n        uint32 createTime = uint32(now);\n        uint id = bills.push(\n            Bill(\n                PrimaryCategory(_primaryCategory),\n                SecondaryCategory(_secondaryCategory),\n                createTime,\n                _amount)\n            ) - 1;\n        billToOwner[id] = msg.sender;\n        ownerBillCount[msg.sender]++;\n    }\n}",
  "sourcePath": "/Users/gaowenfeng/project/solidity/ChainBook/contracts/AccountBookFactory.sol",
  "compiler": {
    "name": "solc",
    "version": "0.4.24+commit.e67f0147.Emscripten.clang"
  },
  "schemaVersion": "2.0.1",
  "updatedAt": "2018-10-11T16:04:52.554Z"
}