{
  "contractName": "AccountBookFactory",
  "abi": [
    {
      "constant": true,
      "inputs": [
        {
          "name": "",
          "type": "uint256"
        }
      ],
      "name": "billToOwner",
      "outputs": [
        {
          "name": "",
          "type": "address"
        }
      ],
      "payable": false,
      "stateMutability": "view",
      "type": "function"
    },
    {
      "constant": true,
      "inputs": [
        {
          "name": "",
          "type": "uint256"
        }
      ],
      "name": "bills",
      "outputs": [
        {
          "name": "primaryCategory",
          "type": "uint8"
        },
        {
          "name": "secondaryCategory",
          "type": "uint8"
        },
        {
          "name": "createTime",
          "type": "uint32"
        },
        {
          "name": "amount",
          "type": "uint256"
        }
      ],
      "payable": false,
      "stateMutability": "view",
      "type": "function"
    },
    {
      "constant": false,
      "inputs": [
        {
          "name": "_amount",
          "type": "uint256"
        },
        {
          "name": "_primaryCategory",
          "type": "uint256"
        },
        {
          "name": "_secondaryCategory",
          "type": "uint256"
        }
      ],
      "name": "createBill",
      "outputs": [],
      "payable": false,
      "stateMutability": "nonpayable",
      "type": "function"
    }
  ],
  "bytecode": "0x608060405234801561001057600080fd5b50610409806100206000396000f300608060405260043610610057576000357c0100000000000000000000000000000000000000000000000000000000900463ffffffff1680631d77d4891461005c57806328bdcde8146100c95780637a54f18914610147575b600080fd5b34801561006857600080fd5b5061008760048036038101908080359060200190929190505050610188565b604051808273ffffffffffffffffffffffffffffffffffffffff1673ffffffffffffffffffffffffffffffffffffffff16815260200191505060405180910390f35b3480156100d557600080fd5b506100f4600480360381019080803590602001909291905050506101bb565b6040518085600181111561010457fe5b60ff16815260200184600381111561011857fe5b60ff1681526020018363ffffffff1663ffffffff16815260200182815260200194505050505060405180910390f35b34801561015357600080fd5b50610186600480360381019080803590602001909291908035906020019092919080359060200190929190505050610224565b005b60016020528060005260406000206000915054906101000a900473ffffffffffffffffffffffffffffffffffffffff1681565b6000818154811015156101ca57fe5b90600052602060002090600202016000915090508060000160009054906101000a900460ff16908060000160019054906101000a900460ff16908060000160029054906101000a900463ffffffff16908060010154905084565b6000804291506001600060806040519081016040528087600181111561024657fe5b600181111561025157fe5b815260200186600381111561026257fe5b600381111561026d57fe5b81526020018563ffffffff168152602001888152509080600181540180825580915050906001820390600052602060002090600202016000909192909190915060008201518160000160006101000a81548160ff021916908360018111156102d157fe5b021790555060208201518160000160016101000a81548160ff021916908360038111156102fa57fe5b021790555060408201518160000160026101000a81548163ffffffff021916908363ffffffff160217905550606082015181600101555050039050336001600083815260200190815260200160002060006101000a81548173ffffffffffffffffffffffffffffffffffffffff021916908373ffffffffffffffffffffffffffffffffffffffff160217905550600260003373ffffffffffffffffffffffffffffffffffffffff1673ffffffffffffffffffffffffffffffffffffffff1681526020019081526020016000206000815480929190600101919050555050505050505600a165627a7a7230582071570007fe06d850799bd02f54619553ef866ee2954e80a92f11c1ab9d5d1a430029",
  "source": "pragma solidity ^0.4.20;\n\n\ncontract AccountBookFactory {\n    \n    enum PrimaryCategory {\n        InCome,\n        Expend\n    }\n    \n    enum SecondaryCategory {\n        Eat,\n        Traffic,\n        General,\n        Other\n    }\n    \n    struct Bill {\n        PrimaryCategory primaryCategory;\n        SecondaryCategory secondaryCategory;\n        uint32 createTime;\n        uint256 amount;\n    }\n    \n    Bill[] public bills;\n    \n    mapping (uint => address) public billToOwner;\n    mapping (address => uint) ownerBillCount;\n    \n    function createBill(\n        uint _amount,\n        uint _primaryCategory,\n        uint _secondaryCategory) \n        public \n    {\n        uint32 createTime = uint32(now);\n        uint id = bills.push(\n            Bill(\n                PrimaryCategory(_primaryCategory),\n                SecondaryCategory(_secondaryCategory),\n                createTime,\n                _amount)\n            ) - 1;\n        billToOwner[id] = msg.sender;\n        ownerBillCount[msg.sender]++;\n    }\n}",
  "sourcePath": "/Users/gaowenfeng/project/solidity/ChainBook/contracts/AccountBookFactory.sol",
  "compiler": {
    "name": "solc",
    "version": "0.4.24+commit.e67f0147.Emscripten.clang"
  },
  "schemaVersion": "2.0.1",
  "updatedAt": "2018-10-10T08:31:21.861Z"
}