{
  "contractName": "UserInterface",
  "abi": [
    {
      "constant": true,
      "inputs": [
        {
          "name": "_openid",
          "type": "string"
        }
      ],
      "name": "getUserById",
      "outputs": [
        {
          "name": "",
          "type": "string"
        }
      ],
      "payable": false,
      "stateMutability": "view",
      "type": "function"
    },
    {
      "constant": false,
      "inputs": [
        {
          "name": "_openid",
          "type": "string"
        },
        {
          "name": "_userName",
          "type": "string"
        }
      ],
      "name": "createUser",
      "outputs": [],
      "payable": false,
      "stateMutability": "nonpayable",
      "type": "function"
    },
    {
      "constant": false,
      "inputs": [
        {
          "name": "openid",
          "type": "string"
        },
        {
          "name": "bookName",
          "type": "string"
        }
      ],
      "name": "addBook",
      "outputs": [],
      "payable": false,
      "stateMutability": "nonpayable",
      "type": "function"
    },
    {
      "constant": true,
      "inputs": [
        {
          "name": "openid",
          "type": "string"
        },
        {
          "name": "index",
          "type": "uint256"
        }
      ],
      "name": "getUserBooksByOpenIdAndBookIndex",
      "outputs": [
        {
          "name": "",
          "type": "string"
        }
      ],
      "payable": false,
      "stateMutability": "view",
      "type": "function"
    },
    {
      "constant": true,
      "inputs": [
        {
          "name": "openid",
          "type": "string"
        }
      ],
      "name": "getUserBookNumsByOpenId",
      "outputs": [
        {
          "name": "",
          "type": "uint256"
        }
      ],
      "payable": false,
      "stateMutability": "view",
      "type": "function"
    },
    {
      "constant": false,
      "inputs": [
        {
          "name": "openid",
          "type": "string"
        }
      ],
      "name": "getUserBooksByOpenId",
      "outputs": [
        {
          "name": "",
          "type": "string[10]"
        }
      ],
      "payable": false,
      "stateMutability": "nonpayable",
      "type": "function"
    }
  ],
  "bytecode": "0x608060405234801561001057600080fd5b50610dd3806100206000396000f300608060405260043610610078576000357c0100000000000000000000000000000000000000000000000000000000900463ffffffff168063379f8fc21461007d5780637f413cbb146100ba57806387b162b5146100f7578063885d7f8914610120578063d8a7233e1461015d578063f195fb9f14610186575b600080fd5b34801561008957600080fd5b506100a4600480360361009f9190810190610a61565b6101c3565b6040516100b19190610c64565b60405180910390f35b3480156100c657600080fd5b506100e160048036036100dc9190810190610b0e565b6102d3565b6040516100ee9190610c64565b60405180910390f35b34801561010357600080fd5b5061011e60048036036101199190810190610aa2565b6103fe565b005b34801561012c57600080fd5b5061014760048036036101429190810190610a61565b610508565b6040516101549190610c86565b60405180910390f35b34801561016957600080fd5b50610184600480360361017f9190810190610aa2565b610582565b005b34801561019257600080fd5b506101ad60048036036101a89190810190610a61565b610603565b6040516101ba9190610c42565b60405180910390f35b60606000826040518082805190602001908083835b6020831015156101fd57805182526020820191506020810190506020830392506101d8565b6001836020036101000a03801982511681845116808217855250505050505090500191505090815260200160405180910390206001018054600181600116156101000203166002900480601f0160208091040260200160405190810160405280929190818152602001828054600181600116156101000203166002900480156102c75780601f1061029c576101008083540402835291602001916102c7565b820191906000526020600020905b8154815290600101906020018083116102aa57829003601f168201915b50505050509050919050565b60606000836040518082805190602001908083835b60208310151561030d57805182526020820191506020810190506020830392506102e8565b6001836020036101000a03801982511681845116808217855250505050505090500191505090815260200160405180910390206002018281548110151561035057fe5b906000526020600020016000018054600181600116156101000203166002900480601f0160208091040260200160405190810160405280929190818152602001828054600181600116156101000203166002900480156103f15780601f106103c6576101008083540402835291602001916103f1565b820191906000526020600020905b8154815290600101906020018083116103d457829003601f168201915b5050505050905092915050565b816000836040518082805190602001908083835b6020831015156104375780518252602082019150602081019050602083039250610412565b6001836020036101000a03801982511681845116808217855250505050505090500191505090815260200160405180910390206000019080519060200190610480929190610822565b50806000836040518082805190602001908083835b6020831015156104ba5780518252602082019150602081019050602083039250610495565b6001836020036101000a03801982511681845116808217855250505050505090500191505090815260200160405180910390206001019080519060200190610503929190610822565b505050565b600080826040518082805190602001908083835b602083101515610541578051825260208201915060208101905060208303925061051c565b6001836020036101000a0380198251168184511680821785525050505050509050019150509081526020016040518091039020600201805490509050919050565b6105ff816000846040518082805190602001908083835b6020831015156105be5780518252602082019150602081019050602083039250610599565b6001836020036101000a03801982511681845116808217855250505050505090500191505090815260200160405180910390206107c390919063ffffffff16565b5050565b61060b6108a2565b600080600080856040518082805190602001908083835b6020831015156106475780518252602082019150602081019050602083039250610622565b6001836020036101000a03801982511681845116808217855250505050505090500191505090815260200160405180910390209250600090505b82600201805490508110156106ea5782600201818154811015156106a157fe5b906000526020600020016000018282600a811015156106bc57fe5b0190805460018160011615610100020316600290046106dc9291906108cb565b508080600101915050610681565b81600a80602002604051908101604052809291906000905b828210156107b5578382018054600181600116156101000203166002900480601f0160208091040260200160405190810160405280929190818152602001828054600181600116156101000203166002900480156107a15780601f10610776576101008083540402835291602001916107a1565b820191906000526020600020905b81548152906001019060200180831161078457829003601f168201915b505050505081526020019060010190610702565b505050509350505050919050565b8160020160206040519081016040528083815250908060018154018082558091505090600182039060005260206000200160009091929091909150600082015181600001908051906020019061081a929190610952565b505050505050565b828054600181600116156101000203166002900490600052602060002090601f016020900481019282601f1061086357805160ff1916838001178555610891565b82800160010185558215610891579182015b82811115610890578251825591602001919060010190610875565b5b50905061089e91906109d2565b5090565b61014060405190810160405280600a905b60608152602001906001900390816108b35790505090565b828054600181600116156101000203166002900490600052602060002090601f016020900481019282601f106109045780548555610941565b8280016001018555821561094157600052602060002091601f016020900482015b82811115610940578254825591600101919060010190610925565b5b50905061094e91906109d2565b5090565b828054600181600116156101000203166002900490600052602060002090601f016020900481019282601f1061099357805160ff19168380011785556109c1565b828001600101855582156109c1579182015b828111156109c05782518255916020019190600101906109a5565b5b5090506109ce91906109d2565b5090565b6109f491905b808211156109f05760008160009055506001016109d8565b5090565b90565b600082601f8301121515610a0a57600080fd5b8135610a1d610a1882610cce565b610ca1565b91508082526020830160208301858383011115610a3957600080fd5b610a44838284610d46565b50505092915050565b6000610a598235610d3c565b905092915050565b600060208284031215610a7357600080fd5b600082013567ffffffffffffffff811115610a8d57600080fd5b610a99848285016109f7565b91505092915050565b60008060408385031215610ab557600080fd5b600083013567ffffffffffffffff811115610acf57600080fd5b610adb858286016109f7565b925050602083013567ffffffffffffffff811115610af857600080fd5b610b04858286016109f7565b9150509250929050565b60008060408385031215610b2157600080fd5b600083013567ffffffffffffffff811115610b3b57600080fd5b610b47858286016109f7565b9250506020610b5885828601610a4d565b9150509250929050565b6000610b6d82610d04565b83602082028501610b7d85610cfa565b60005b84811015610bb6578383038852610b98838351610bfd565b9250610ba382610d25565b9150602088019750600181019050610b80565b508196508694505050505092915050565b6000610bd282610d1a565b808452610be6816020860160208601610d55565b610bef81610d88565b602085010191505092915050565b6000610c0882610d0f565b808452610c1c816020860160208601610d55565b610c2581610d88565b602085010191505092915050565b610c3c81610d32565b82525050565b60006020820190508181036000830152610c5c8184610b62565b905092915050565b60006020820190508181036000830152610c7e8184610bc7565b905092915050565b6000602082019050610c9b6000830184610c33565b92915050565b6000604051905081810181811067ffffffffffffffff82111715610cc457600080fd5b8060405250919050565b600067ffffffffffffffff821115610ce557600080fd5b601f19601f8301169050602081019050919050565b6000819050919050565b6000600a9050919050565b600081519050919050565b600081519050919050565b6000602082019050919050565b6000819050919050565b6000819050919050565b82818337600083830152505050565b60005b83811015610d73578082015181840152602081019050610d58565b83811115610d82576000848401525b50505050565b6000601f19601f83011690509190505600a265627a7a723058203d7e27d182c57fae02f355a01c86f410c55f4c2ab3eb5740e83b0504c90ba0fc6c6578706572696d656e74616cf50037",
  "source": "pragma solidity ^0.4.20;\npragma experimental ABIEncoderV2;\n\nimport \"../factory/UserFactory.sol\";\nimport \"../model/struct/User.sol\";\n\ncontract UserInterface is UserFactory {\n    function addBook(string openid, string bookName) public {\n        users[openid].addBook(bookName);\n    }\n\n    function getUserBooksByOpenIdAndBookIndex(string openid, uint index) public view returns(string) {\n        return users[openid].books[index].bookName;\n    }\n\n    function getUserBookNumsByOpenId(string openid) public view returns(uint256) {\n        return users[openid].books.length;\n    }\n\n    function getUserBooksByOpenId(string openid) public returns(string[10]) {\n        User.SUser storage user = users[openid];\n        string[10] arrays;\n        for(uint i = 0;i < user.books.length; i++) {\n            arrays[i] = user.books[i].bookName;\n        }\n        return arrays;\n    }\n}",
  "sourcePath": "/Users/wangbin/Documents/workspace/chainbook/contracts/com/chainbook/interface/UserInterface.sol",
  "compiler": {
    "name": "solc",
    "version": "0.4.24+commit.e67f0147.Emscripten.clang"
  },
  "schemaVersion": "2.0.1",
  "updatedAt": "2018-09-23T12:58:50.702Z"
}