{
  "contractName": "UserFactory",
  "abi": [
    {
      "constant": false,
      "inputs": [
        {
          "name": "_openid",
          "type": "string"
        },
        {
          "name": "_userName",
          "type": "string"
        }
      ],
      "name": "createUser",
      "outputs": [],
      "payable": false,
      "stateMutability": "nonpayable",
      "type": "function"
    },
    {
      "constant": true,
      "inputs": [
        {
          "name": "_openid",
          "type": "string"
        }
      ],
      "name": "getUserById",
      "outputs": [
        {
          "name": "",
          "type": "string"
        }
      ],
      "payable": false,
      "stateMutability": "view",
      "type": "function"
    }
  ],
  "bytecode": "0x608060405234801561001057600080fd5b506105c2806100206000396000f30060806040526004361061004c576000357c0100000000000000000000000000000000000000000000000000000000900463ffffffff168063379f8fc21461005157806387b162b51461008e575b600080fd5b34801561005d57600080fd5b50610078600480360361007391908101906103cc565b6100b7565b60405161008591906104af565b60405180910390f35b34801561009a57600080fd5b506100b560048036036100b0919081019061040d565b6101c7565b005b60606000826040518082805190602001908083835b6020831015156100f157805182526020820191506020810190506020830392506100cc565b6001836020036101000a03801982511681845116808217855250505050505090500191505090815260200160405180910390206001018054600181600116156101000203166002900480601f0160208091040260200160405190810160405280929190818152602001828054600181600116156101000203166002900480156101bb5780601f10610190576101008083540402835291602001916101bb565b820191906000526020600020905b81548152906001019060200180831161019e57829003601f168201915b50505050509050919050565b816000836040518082805190602001908083835b60208310151561020057805182526020820191506020810190506020830392506101db565b6001836020036101000a038019825116818451168082178552505050505050905001915050908152602001604051809103902060000190805190602001906102499291906102d1565b50806000836040518082805190602001908083835b602083101515610283578051825260208201915060208101905060208303925061025e565b6001836020036101000a038019825116818451168082178552505050505050905001915050908152602001604051809103902060010190805190602001906102cc9291906102d1565b505050565b828054600181600116156101000203166002900490600052602060002090601f016020900481019282601f1061031257805160ff1916838001178555610340565b82800160010185558215610340579182015b8281111561033f578251825591602001919060010190610324565b5b50905061034d9190610351565b5090565b61037391905b8082111561036f576000816000905550600101610357565b5090565b90565b600082601f830112151561038957600080fd5b813561039c610397826104fe565b6104d1565b915080825260208301602083018583830111156103b857600080fd5b6103c3838284610535565b50505092915050565b6000602082840312156103de57600080fd5b600082013567ffffffffffffffff8111156103f857600080fd5b61040484828501610376565b91505092915050565b6000806040838503121561042057600080fd5b600083013567ffffffffffffffff81111561043a57600080fd5b61044685828601610376565b925050602083013567ffffffffffffffff81111561046357600080fd5b61046f85828601610376565b9150509250929050565b60006104848261052a565b808452610498816020860160208601610544565b6104a181610577565b602085010191505092915050565b600060208201905081810360008301526104c98184610479565b905092915050565b6000604051905081810181811067ffffffffffffffff821117156104f457600080fd5b8060405250919050565b600067ffffffffffffffff82111561051557600080fd5b601f19601f8301169050602081019050919050565b600081519050919050565b82818337600083830152505050565b60005b83811015610562578082015181840152602081019050610547565b83811115610571576000848401525b50505050565b6000601f19601f83011690509190505600a265627a7a7230582036fef5f0b9819157dd955f8845f707f6f74c51257f327cdc12122322a4306f0e6c6578706572696d656e74616cf50037",
  "source": "pragma solidity ^0.4.20;\npragma experimental ABIEncoderV2;\n\nimport \"../model/library/UserLibrary.sol\";\nimport \"../model/struct/AccountBook.sol\";\nimport \"../model/struct/User.sol\";\n\n// 文峰是智障!!\ncontract UserFactory {\n\n    using UserLibrary for User.SUser;\n\n    mapping (string => User.SUser) users;\n\n    function createUser(string _openid, string _userName) public {\n        users[_openid].openid = _openid;\n        users[_openid].userName = _userName;\n    }\n\n    function getUserById(string _openid) public view returns (string) {\n        return users[_openid].userName;\n    }\n}",
  "sourcePath": "/Users/wangbin/Documents/workspace/chainbook/contracts/com/chainbook/factory/UserFactory.sol",
  "compiler": {
    "name": "solc",
    "version": "0.4.24+commit.e67f0147.Emscripten.clang"
  },
  "schemaVersion": "2.0.1",
  "updatedAt": "2018-09-23T12:58:50.701Z"
}