{
  "contractName": "UserInterface",
  "abi": [
    {
      "constant": false,
      "inputs": [
        {
          "name": "_openid",
          "type": "string"
        },
        {
          "name": "_userName",
          "type": "string"
        }
      ],
      "name": "createUser",
      "outputs": [],
      "payable": false,
      "stateMutability": "nonpayable",
      "type": "function"
    },
    {
      "constant": false,
      "inputs": [
        {
          "name": "openid",
          "type": "string"
        },
        {
          "name": "bookName",
          "type": "string"
        }
      ],
      "name": "addBook",
      "outputs": [],
      "payable": false,
      "stateMutability": "nonpayable",
      "type": "function"
    },
    {
      "constant": true,
      "inputs": [
        {
          "name": "openid",
          "type": "string"
        },
        {
          "name": "index",
          "type": "uint256"
        }
      ],
      "name": "getUserBooksByOpenIdAndBookIndex",
      "outputs": [
        {
          "name": "",
          "type": "string"
        }
      ],
      "payable": false,
      "stateMutability": "view",
      "type": "function"
    },
    {
      "constant": true,
      "inputs": [
        {
          "name": "openid",
          "type": "string"
        }
      ],
      "name": "getUserBookNumsByOpenId",
      "outputs": [
        {
          "name": "",
          "type": "uint256"
        }
      ],
      "payable": false,
      "stateMutability": "view",
      "type": "function"
    },
    {
      "constant": false,
      "inputs": [
        {
          "name": "openid",
          "type": "string"
        }
      ],
      "name": "getUserBooksByOpenId",
      "outputs": [
        {
          "name": "",
          "type": "string[10]"
        }
      ],
      "payable": false,
      "stateMutability": "nonpayable",
      "type": "function"
    }
  ],
  "bytecode": "0x608060405234801561001057600080fd5b50610c7b806100206000396000f30060806040526004361061006d576000357c0100000000000000000000000000000000000000000000000000000000900463ffffffff1680637f413cbb1461007257806387b162b5146100af578063885d7f89146100d8578063d8a7233e14610115578063f195fb9f1461013e575b600080fd5b34801561007e57600080fd5b50610099600480360361009491908101906109b6565b61017b565b6040516100a69190610b0c565b60405180910390f35b3480156100bb57600080fd5b506100d660048036036100d1919081019061094a565b6102a6565b005b3480156100e457600080fd5b506100ff60048036036100fa9190810190610909565b6103b0565b60405161010c9190610b2e565b60405180910390f35b34801561012157600080fd5b5061013c6004803603610137919081019061094a565b61042a565b005b34801561014a57600080fd5b5061016560048036036101609190810190610909565b6104ab565b6040516101729190610aea565b60405180910390f35b60606000836040518082805190602001908083835b6020831015156101b55780518252602082019150602081019050602083039250610190565b6001836020036101000a0380198251168184511680821785525050505050509050019150509081526020016040518091039020600201828154811015156101f857fe5b906000526020600020016000018054600181600116156101000203166002900480601f0160208091040260200160405190810160405280929190818152602001828054600181600116156101000203166002900480156102995780601f1061026e57610100808354040283529160200191610299565b820191906000526020600020905b81548152906001019060200180831161027c57829003601f168201915b5050505050905092915050565b816000836040518082805190602001908083835b6020831015156102df57805182526020820191506020810190506020830392506102ba565b6001836020036101000a038019825116818451168082178552505050505050905001915050908152602001604051809103902060000190805190602001906103289291906106ca565b50806000836040518082805190602001908083835b602083101515610362578051825260208201915060208101905060208303925061033d565b6001836020036101000a038019825116818451168082178552505050505050905001915050908152602001604051809103902060010190805190602001906103ab9291906106ca565b505050565b600080826040518082805190602001908083835b6020831015156103e957805182526020820191506020810190506020830392506103c4565b6001836020036101000a0380198251168184511680821785525050505050509050019150509081526020016040518091039020600201805490509050919050565b6104a7816000846040518082805190602001908083835b6020831015156104665780518252602082019150602081019050602083039250610441565b6001836020036101000a038019825116818451168082178552505050505050905001915050908152602001604051809103902061066b90919063ffffffff16565b5050565b6104b361074a565b600080600080856040518082805190602001908083835b6020831015156104ef57805182526020820191506020810190506020830392506104ca565b6001836020036101000a03801982511681845116808217855250505050505090500191505090815260200160405180910390209250600090505b826002018054905081101561059257826002018181548110151561054957fe5b906000526020600020016000018282600a8110151561056457fe5b019080546001816001161561010002031660029004610584929190610773565b508080600101915050610529565b81600a80602002604051908101604052809291906000905b8282101561065d578382018054600181600116156101000203166002900480601f0160208091040260200160405190810160405280929190818152602001828054600181600116156101000203166002900480156106495780601f1061061e57610100808354040283529160200191610649565b820191906000526020600020905b81548152906001019060200180831161062c57829003601f168201915b5050505050815260200190600101906105aa565b505050509350505050919050565b816002016020604051908101604052808381525090806001815401808255809150509060018203906000526020600020016000909192909190915060008201518160000190805190602001906106c29291906107fa565b505050505050565b828054600181600116156101000203166002900490600052602060002090601f016020900481019282601f1061070b57805160ff1916838001178555610739565b82800160010185558215610739579182015b8281111561073857825182559160200191906001019061071d565b5b509050610746919061087a565b5090565b61014060405190810160405280600a905b606081526020019060019003908161075b5790505090565b828054600181600116156101000203166002900490600052602060002090601f016020900481019282601f106107ac57805485556107e9565b828001600101855582156107e957600052602060002091601f016020900482015b828111156107e85782548255916001019190600101906107cd565b5b5090506107f6919061087a565b5090565b828054600181600116156101000203166002900490600052602060002090601f016020900481019282601f1061083b57805160ff1916838001178555610869565b82800160010185558215610869579182015b8281111561086857825182559160200191906001019061084d565b5b509050610876919061087a565b5090565b61089c91905b80821115610898576000816000905550600101610880565b5090565b90565b600082601f83011215156108b257600080fd5b81356108c56108c082610b76565b610b49565b915080825260208301602083018583830111156108e157600080fd5b6108ec838284610bee565b50505092915050565b60006109018235610be4565b905092915050565b60006020828403121561091b57600080fd5b600082013567ffffffffffffffff81111561093557600080fd5b6109418482850161089f565b91505092915050565b6000806040838503121561095d57600080fd5b600083013567ffffffffffffffff81111561097757600080fd5b6109838582860161089f565b925050602083013567ffffffffffffffff8111156109a057600080fd5b6109ac8582860161089f565b9150509250929050565b600080604083850312156109c957600080fd5b600083013567ffffffffffffffff8111156109e357600080fd5b6109ef8582860161089f565b9250506020610a00858286016108f5565b9150509250929050565b6000610a1582610bac565b83602082028501610a2585610ba2565b60005b84811015610a5e578383038852610a40838351610aa5565b9250610a4b82610bcd565b9150602088019750600181019050610a28565b508196508694505050505092915050565b6000610a7a82610bc2565b808452610a8e816020860160208601610bfd565b610a9781610c30565b602085010191505092915050565b6000610ab082610bb7565b808452610ac4816020860160208601610bfd565b610acd81610c30565b602085010191505092915050565b610ae481610bda565b82525050565b60006020820190508181036000830152610b048184610a0a565b905092915050565b60006020820190508181036000830152610b268184610a6f565b905092915050565b6000602082019050610b436000830184610adb565b92915050565b6000604051905081810181811067ffffffffffffffff82111715610b6c57600080fd5b8060405250919050565b600067ffffffffffffffff821115610b8d57600080fd5b601f19601f8301169050602081019050919050565b6000819050919050565b6000600a9050919050565b600081519050919050565b600081519050919050565b6000602082019050919050565b6000819050919050565b6000819050919050565b82818337600083830152505050565b60005b83811015610c1b578082015181840152602081019050610c00565b83811115610c2a576000848401525b50505050565b6000601f19601f83011690509190505600a265627a7a723058208aa2d5e5a035d9c628f4276c53f59cf23ec8e83105e3c2670c27c60d135874be6c6578706572696d656e74616cf50037",
  "source": "pragma solidity ^0.4.20;\npragma experimental ABIEncoderV2;\n\nimport './UserFactory.sol';\n\ncontract UserInterface is UserFactory {\n    function addBook(string openid, string bookName) public {\n        users[openid].addBook(bookName);\n    }\n\n    function getUserBooksByOpenIdAndBookIndex(string openid, uint index) public view returns(string) {\n        return users[openid].books[index].bookName;\n    }\n\n    function getUserBookNumsByOpenId(string openid) public view returns(uint256) {\n        return users[openid].books.length;\n    }\n\n    function getUserBooksByOpenId(string openid) public returns(string[10]) {\n        User storage user = users[openid];\n        string[10] arrays;\n        for(uint i=0;i<user.books.length;i++){\n            arrays[i] = user.books[i].bookName;\n        }\n        return arrays;\n    }\n}",
  "sourcePath": "/Users/gaowenfeng/project/solidity/chainbook/contracts/UserInterface.sol",
  "compiler": {
    "name": "solc",
    "version": "0.4.24+commit.e67f0147.Emscripten.clang"
  },
  "schemaVersion": "2.0.1",
  "updatedAt": "2018-09-22T10:27:14.499Z"
}