{
  "contractName": "UserFactory",
  "abi": [
    {
      "constant": false,
      "inputs": [
        {
          "name": "_openid",
          "type": "string"
        },
        {
          "name": "_userName",
          "type": "string"
        }
      ],
      "name": "createUser",
      "outputs": [],
      "payable": false,
      "stateMutability": "nonpayable",
      "type": "function"
    }
  ],
  "bytecode": "0x608060405234801561001057600080fd5b50610382806100206000396000f300608060405260043610610041576000357c0100000000000000000000000000000000000000000000000000000000900463ffffffff16806387b162b514610046575b600080fd5b34801561005257600080fd5b5061006d60048036036100689190810190610274565b61006f565b005b816000836040518082805190602001908083835b6020831015156100a85780518252602082019150602081019050602083039250610083565b6001836020036101000a038019825116818451168082178552505050505050905001915050908152602001604051809103902060000190805190602001906100f1929190610179565b50806000836040518082805190602001908083835b60208310151561012b5780518252602082019150602081019050602083039250610106565b6001836020036101000a03801982511681845116808217855250505050505090500191505090815260200160405180910390206001019080519060200190610174929190610179565b505050565b828054600181600116156101000203166002900490600052602060002090601f016020900481019282601f106101ba57805160ff19168380011785556101e8565b828001600101855582156101e8579182015b828111156101e75782518255916020019190600101906101cc565b5b5090506101f591906101f9565b5090565b61021b91905b808211156102175760008160009055506001016101ff565b5090565b90565b600082601f830112151561023157600080fd5b813561024461023f8261030d565b6102e0565b9150808252602083016020830185838301111561026057600080fd5b61026b838284610339565b50505092915050565b6000806040838503121561028757600080fd5b600083013567ffffffffffffffff8111156102a157600080fd5b6102ad8582860161021e565b925050602083013567ffffffffffffffff8111156102ca57600080fd5b6102d68582860161021e565b9150509250929050565b6000604051905081810181811067ffffffffffffffff8211171561030357600080fd5b8060405250919050565b600067ffffffffffffffff82111561032457600080fd5b601f19601f8301169050602081019050919050565b828183376000838301525050505600a265627a7a72305820fad4dd40f6251be859d24890dd3ebc6e99fae9fbbc5af24efc933ce45cd69d696c6578706572696d656e74616cf50037",
  "source": "pragma solidity ^0.4.20;\npragma experimental ABIEncoderV2;\n\nimport './UserLibrary.sol';\nimport './AccountBook.sol';\n\ncontract UserFactory {\n    struct User {\n        string openid;\n        string userName;\n        AccountBook.Book[] books;\n    }\n    \n    using UserLibrary for User;\n\n    mapping (string => User) users;\n\n    function createUser(string _openid, string _userName) public {\n        users[_openid].openid = _openid;\n        users[_openid].userName = _userName;\n    }\n}",
  "sourcePath": "/Users/gaowenfeng/project/solidity/ChainBook/contracts/UserFactory.sol",
  "compiler": {
    "name": "solc",
    "version": "0.4.24+commit.e67f0147.Emscripten.clang"
  },
  "schemaVersion": "2.0.1",
  "updatedAt": "2018-10-08T13:34:23.042Z"
}